:020000040800F2
:20000000A01D0020E9010008232C00085F1C00080000000000000000000000000000000037
:20002000000000000000000000000000B12D000800000000000000002D2C0008D92D00086B
:20004000FB010008FB010008FB010008FB010008FB010008FB010008FB010008FB01000880
:2000600000000000FB010008FB010008FB010008FB010008FB010008FB0100080000000068
:20008000FB010008FB01000800000000D92E0008FB010008FB010008FB010008FB01000839
:2000A000FB010008FB010008FB010008DD2F000805300008000000000000000000000000E3
:2000C000FB01000800000000FB01000800F002F800F05EF80CA030C8083824182D18671EFE
:2000E000A246AB4654465D46AC4201D100F050F87E460F3EB6460FCC0126334200D0FB1A89
:200100003343A246AB461847E8DF000008E00000103A02D378C878C1FAD8520701D330C8F3
:2001200030C101D504680C60704700000023002400250026103A01D378C1FBD8520700D381
:2001400030C100D50B60704710B5642902D100F0E1F810BD752902D100F0DCF810BD782959
:2001600002D100F00DF910BD732902D101F058FA10BD002010BD1FB501F0BAF904000020E1
:2001800000210BF0DDFC401C60601FBD10B510BD01F030FB1146FFF7EEFF08F0C5F901F0E3
:2001A00048FB03B4FFF7F2FF03BC02F0DDFF000070B505460C46164602E00FCC0FC5103ED4
:2001C000102EFAD2082E02D303CC03C5083E042E07D301CC01C5361F03E021782970641CA4
:2001E0006D1C761EF9D270BD0748804707480047FEE7FEE7FEE7FEE7FEE7FEE70448054946
:20020000054A064B70470000592E0008CD000008A0150020A01D0020A0190020A0190020BF
:2002200010B501F065F9001D10BD00BF15B900000FB4054910B503AA029801F0F5F910BC6B
:2002400008BC04B0184700004C0300200FB41CB5074B06AA7B4469460090059801F0B5F988
:200260000020694601F0C4F91CBC08BC04B018479913000070B5044685690068C10601D544
:20028000302600E02026C00707D070BD62683046A1689047206A401C20626D1EF6D570BD0C
:2002A00070B5044685690078C00707D170BD6268A16820209047206A401C20626D1EF6D5F5
:2002C00070BD70B50C460546012A05D02878800600D5EA69002302E0012305E05B1C934287
:2002E00002D2E05C0028F9D1A869E618C01AA861286AC01828622846FFF7BCFF04E06A6841
:200300002078A968641C9047B442F8D32846FFF7C7FF70BDF7B5002575291068009914A68B
:2003200011D0C046C046002802DA404211A608E0009909688A0701D50FA602E0490704D57A
:200340000EA6012501E0C046C046009F0024243704E001F07DF930313955641C0028F8D10D
:200360002B4632462146009801F0D1F8FEBD0000000000002D0000002B00000020000000A8
:2003800070B504460D4621461068C046C0462188090502D50F4A7A4402E00E4A7A440E32D3
:2003A00023460021243305E006070009360F965D5E54491C0028F7D120780023000705D586
:2003C000702D03D0002901D002231132204601F09EF870BD4EBB0000F3B50446002081B0E5
:2003E00020622046E168884700287DD0252802D06268A16883E0454F00257F442046E16808
:2004000088472028064608DB312E06D2B81920380078002801D00543F0E7A80701D50420FD
:2004200085430020E0610746A0612A2E0AD030460BF03AF9002827D0B8000019303E009081
:20044000866119E00298BA00121902C8916102902046E1688847012F064617D1E06900289C
:200460001FDA202085431CE000980A218069484300998019303888612046E16888470646FB
:200480000BF012F90028EFD1012F0AD02E2E08D12046E16888470646202005437F1C022F11
:2004A000C3DBA069002803DA4042A06101200543E80701D010208543002E24D030464138DB
:2004C000192803D80120C00205432036204625603146029A1546FFF737FE00280CD00128CE
:2004E00007D0ED1DE80800E00DE0C0000830029077E72D1D029574E762683046A16890471A
:20050000206A401C6CE7206AFEBD000012BB000010B5044603E006F01BFC401C08D02078C5
:200520000549641C0028F6D10A2006F011FC10BD0020C04310BD00004C030020401ECAB2CB
:200540004178401C8A4202D00029F9D100207047034670B502460B439B070FD10E4CE60157
:2005600000E008C208C91D1B9D433542F9D0D9B21170521C00290DD01B0AF8E70B78491C3C
:200580001370521C002B05D00B78491C1370521C002BF3D170BD00000101010130B5441C2C
:2005A00003E00178401C00290DD08107F9D10B4BDD0104C8D11A91432940FAD0001B0A060E
:2005C00003D0C01E30BD001B30BD0A0401D0801E30BD0902FCD0401E30BD000001010101E5
:2005E000F8B5042A2CD3830712D00B78491C0370401C521E83070BD00B78491C0370401C72
:20060000521E830704D00B78491C0370401C521E8B079B0F05D0C91ADF002023DE1B08C905
:200620000AE0FFF7C5FDF8BD1D4608C9FD401C46B4402C4310C0121F042AF5D2F308C91A59
:20064000521EF0D40B78491C0370401C521EEAD40B78491C0370401C012AE4D409780170F5
:20066000F8BDD2B210B513029A1813049A1800F00EF810BD01E004C0091F0429FBD28B07D0
:2006800001D50280801CC90700D00270704700290BD0C30702D00270401C491E022904D3C6
:2006A000830702D50280801C891EE3E70022EEE70022DFE782078B079A423ED170B5920F9F
:2006C00009D0032402780B78401C491C9AB39A4231D12042F6D1214EF40104C808C9951B57
:2006E0009543254018D19A420FD104C808C9951B9543254010D19A4207D104C808C9951BAC
:200700009543254008D19A42E7D012BA1BBA01209A4200D2404270BD12BA1BBA2DBA18244D
:200720001000E0401900E140401A05D12E00E64002D1083CF4D1D01A70BD02780B78401C7F
:20074000491C42B19A4206D102780B78401C491C0AB19A42F1D0D01A704700BF0101010114
:2007600070477047704700000246C80FC00781434B0030B54B405B009B0D20D01923DB06DF
:20078000C91801231B05994220DB0324A40704251346AB400BD3002B04D1EB0613409B0062
:2007A000E34204D401246407002312195941FF231B0599420BD2C9000143500F09E0CB02A8
:2007C00004D501430803024305D0054830BDFF21C905084330BD084607210905884330BD3B
:2007E0000000C07FF0B50C46871A9C410D46861A9D4103D2C01BA141D21963410D0D1F0D0D
:20080000C94EEC1BAE435CD07F057F0D0026002F51D02D05AC46A943DD020123ED0A1B05ED
:200820001D4320231B1B24D41746E740381871412F46E740CC199D402818314661410C0D91
:2008400027D161449A4013D50023401C594152000ED14008400001224B005205D34207D3B3
:2008600005204007C14201D5B04900E0B0493046F0BD6B00002A00D001229A181F23203C66
:200880001B1B01D5002302E0E540281871410C0DD7D0012424050919C407CD0740084908C8
:2008A000E40F28436144002CD5D00024401C61419A40D0D1CDE76A05520DD9D1C90FC907F3
:2008C000D5E79C4D4E00002801D0012400E0002434195F00002A01D0012600E00026BE1958
:2008E000954FAC420CD8AE420AD8B44206D001256D05EC42BCD010461946F0BD9942FCD049
:2009000000203946F0BDF0B51FB40C460F46811A9F412546861A9D4106D20125ED076F4067
:20092000401ABC4152187B41210D1E0D8D1BAC467D4D8D437ED075056D0D7CD00D05AE4619
:20094000AC431B031B0B794D52429D41202366469B1B14D31746F740381800260090744151
:2009600060462F460741E41900989D402818664116D4714671189A4025D5012320E09318EE
:200980002A466A415200002B00D0521C1E23203E9B1B002B61DD3541EE1728186641E8D5A4
:2009A000001876415B1C9A4000D3401C4B05F3181524E34010D3002B52D071467118D30FDF
:2009C000C01802D3491C05B0F0BD0123DB079A42F9D140084000F6E701225205B21801D17C
:2009E000002853D00123CC0ADB029943891E002A08D1020C03D0020C0004103902E00246E9
:200A0000002020390023550B05D112020823550B01D152010D23550C01D112011B1DD50CB1
:200A200001D192009B1C150D01D152005B1C2025EE1A01E02CE022E00546F54015439840F2
:200A4000CA1AE10769181305C918002ABBDA032040070818C10FC9070FE071466118B2E7AF
:200A6000F10740080843711071444A000CD001235B059A42A7D2C90FC9070020A3E7490516
:200A8000490D26D1002001E00028F4D100219AE7284D6600002801D0012100E000217118F9
:200AA0005F00002A01D0012600E00026BE19224FA94210D8AE420ED8B14208D001256D055B
:200AC000E94206D01946A802414010467BE79C4201D0214677E70020394674E710B50C464E
:200AE0005C4005D50124E4076340FFF70CFF10BDFFF778FE10BD30B40C465C4004D50124F6
:200B0000E407634030BC6DE630BCFCE670B50124E40761400D465D4002D4FFF763FE70BD1A
:200B20006340FFF7F0FE70BDFF0700000000F0FF0000F07F0000E0FF0000F87FF0B5F94D5C
:200B40000C091E092C402E402F468BB0A7437DD0B543FCD0002E7AD0002CFCD00D465D4074
:200B6000ED0F2543AC1BFF25AD0464190894C502440DC9022143500DDC0204430120C007AB
:200B800001430443D2020191200C110C00958C46010423468B430A9161460904E24D8A432D
:200BA0000991010A7D4449198039097805464D4301266D18F605751B6943C90C640B891C8C
:200BC0004C436418B5012C1B250C2E04B4434C434D43210C691889090591009DE90701D060
:200BE0000121C90704912C4601996708CD072F434C08059DE10B4D432D0C2946664675432F
:200C000002950D4645432E46029D7D1BB44100950D465D4301942C0C2F040D465543AE465B
:200C20002D0C3D43029503947546049C2D04641B049406D2029C039D641C00267541039520
:200C4000029401AC70CC009F7D1B01E03EE162E1B44109040095079101940599A4086143E9
:200C6000090C0C464443650BE7040C4666467443A646640B3C43039502947446049DE4042B
:200C80002C1B049406D2029C039D641C002675410395029401AC70CC009F7D1BB44101942B
:200CA0000C465C430095650FE7000C465443A646640F3C43039502947446049DE4002C1BD8
:200CC000049406D2029C039D641C002675410395029401AC70CC009F7D1BB441AE09AF065B
:200CE000049DC900AD092F43049DA406AD060495079D344369180791059DE10B4D432D0C40
:200D000029466646754302950D4645432E46029D7D1BB44100950D465D4301942C0C2F0466
:200D20000D465543AE462D0C3D43029503947546049C2D04641B049406D2029C039D641CB4
:200D4000002675410395029401AC70CC009F7D1BB44101948C050694079C890A6118009570
:200D60000791019C0599A4086143090C0D464543680BEF040D46644665436C0B3C43049FBC
:200D8000ED047D1BAC4602D20025641C6841009E019D371B85410846584301950C46460F3C
:200DA000C5005443600F28436546E4002C1B02D20025401C6E41019D3F1AB5412846BD0902
:200DC000800628438446A009BF064E020699A40676180743079D002068410A990790194376
:200DE0000020099B00906046FF1913434041E20F64003A43A4460446D71A8C41A04203D988
:200E00000120009020463A46C70F941840416246D20F2243644664000494009CBE466400A0
:200E2000D71AA446044602978C417746002F01D1A04204D96046401C8446029A2046C40F09
:200E4000A64694184041049A0546D20F224364466400D31A8D417146002901D1A84202D90A
:200E600028461A46641C10430122002800D0164361020020079B891904465C410223002C5E
:200E800002DB491813466441089DCE0A2D145D194B056705E10A2C050D1908993E43C907F2
:200EA0006940002B08D0934006D30022761C5141002B01D1760876001C4A002D43DB15429B
:200EC00041D0AA433FD030460BB0F0BD06180D464D41174C7642AC411AD395181C465C4187
:200EE000134A6D42A24113D3012252054C00D4420AD15C00D4420BD04B4002D592021143CF
:200F0000E2E749004908DFE75940C90FC90718E000200849D8E7054801420DD10342F7D0C5
:200F2000F2E700000000FF0779B300000000F07F0000E0FF0000F87F114859400143C012D9
:200F400041400020C0E70123089A9B069A4205DC032252078918C90FC907B5E70522520742
:200F60008918074A1143D2125140ADE770B515461C4602460B4628462146FFF7DFFD70BDD3
:200F8000FFFFFF7F30B50346CA02400D1043164D164C0A1502D02043002A06DBAA1A002A29
:200FA00012DDD040FF2A0BDC30BD5205520D01D140004008AA1A07D4D0404042FF2A01DDED
:200FC000002030BD0028FCDD4A00002B01D0012000E00020101801225205D042F0D8C81741
:200FE000C043604030BD00001E040000000000801F22030C02D10F22000402D0030E03D0B1
:2010000004E00020014670470002083A030F01D10001121F830F01D18000921E002801DBDC
:201020004000521E120551184205C012411810467047C10FC90700D04042012292071143FF
:20104000D6E701218907D3E7F0B58B4C0F09254689B0BD437BD01D092646AE43FAD00E4643
:201060005E402740F60F3E43254071D024012142FBD0FF24AD19A4042D1B039501252D0523
:20108000DB02DB0AC9022B43C90A29431E010901040F130F050121431701880B820391434A
:2010A0002D098C46A90B1E438A039543B30B9A0396433F09BA0B9403A74302962E467E431F
:2010C0000497B6464E19D7190C460196544305977E43371B7646BF1B3601B646BE0B361912
:2010E00000967646BC043719009C01D3641C00946400002F01D001263443029E049F75430D
:2011000066467E430496760034196E0034190094029C019E1C196643751BAE4606946546D2
:201120004519059C05956C43594375460891691A0191049E01465143A41B0491611A009C7A
:201140000791E10605D061090122114302E072E06EE06109089D00272C0A2D066918049D17
:201160007C412A0A2D066918019D6241AC0DAD026D185441079A910D920255196141029A88
:20118000644658435443069B059A5A43121A131B9A0E9B015B187A41010B0005C31851414C
:2011A000220A200644195A419A4200D2491C01204002814203D315230226F64302E0142324
:2011C0000326F6432020C51AA9401746AF40DA400A4320460399D8400914731819055118A9
:2011E000039A3843D2075140AC4009D00122944006D30022401C5141002C01D14008400042
:201200001E4A934212D3012203989206904207DB0520400709181A480143C012414004E038
:20122000032040070818C10FC907002009B0F0BD0020F107FAE705180C464C4111486D4201
:20124000A04115D394181A465A410E48644290410ED301204A004005824209D35A00824202
:2012600006D35940C90F084AC90700201143DDE700200649DAE700000000FF07FE0700008F
:20128000FFFFFF7F0000E0FF0000F07F0000F87F0121C9050123411842001B06D3185B0EE9
:2012A0000AD0C1100722D206891840075242D14201D5520089187047090208D50146002A1A
:2012C00003D0C10FC9070020704710467047420202D0002002497047072109050143F4E72A
:2012E0000000F87FF0B5FF252D04C609C209FF2704462E400137CB093E4348402A402B401B
:201300000746002A6BD0002B69D0AA4267D0AB4265D0002800DA32460125ED0529432C4305
:2013200009022002090AD21A4B0C7F24E31A434C000A7C44E35C7D242404121914145B007B
:20134000A218884201D3521C00E0400049420C465C4324115C43DB016415E318040A5C435A
:20136000C502200D0C4644436419250A5D432303EC0C0D46654300030019EB184C42A342A9
:2013800001D35B18401CD4052018002B07D05B00C91804D3401C002901D1400840003F2145
:2013A00089048A4209D3002A08DC1106090F04D0032149074018C00FC007F0BD0122410074
:2013C000120689187F2252069142F6D205214907C84201D59010F0BDFF20C005F0BD002F5D
:2013E00000DA32461648AA4207D2AB4205D21902090E17D0F80FC007F0BDFF2563002D0666
:20140000AB42F9D84900A942F6D8AB4201D1A942F2D0A94201D1002101E061004908D0055A
:201420000843F0BD1102090EFBD0FF200243D005F0BD0A460146104654E700006BAC00009A
:201440000000C07F10B501469E240002CA15A307002A02D01843002A04DBA21A002A0CDDC5
:20146000D04010BD1206120E01D140004008A21A03D4D04040420028F3DDFF22480012065F
:20148000904201D9002010BDC817C043584010BD1F22030C02D10F2200041CD0030E01D145
:2014A0000002083A030F01D10001121F830F01D18000921E002801DB4000521ED20551184A
:2014C000021251181922904004D3491C002801D14908490008467047C10FC90700D04042BD
:2014E000012292071143D3E701218907D0E70000004870477001002010B500F0F1F8006823
:2015000010BD10B5044600F0EBF8046010BDFFB504460D4681B0243000902168880604D595
:201520001022E0699143216000E00120A84201DD471B00E000270498A1697A191018081A26
:20154000A0612078C00602D42046FEF793FE002608E003986268A168805D9047206A401C54
:20156000761C206204988642F3DB2078C0060AD52046FEF77FFE06E06268A1683020904730
:20158000206A401C206238467F1E0028F4DC07E000986268A168405D9047206A401C2062A2
:2015A00028466D1E0028F3DC2046FEF779FE2078000602D5022005B0F0BD0120FBE700006D
:2015C00001694A1C02610878704700B58FB002910021059105490193794403911146049045
:2015E0006846FEF7F9FE0FB000BD0000E5FFFFFF0A681070521C0A60704710B54369002BD6
:2016000002D0C046C04601E0FEF75BFE012010BD1278014624310A7000224A700122ECE75D
:2016200011680022D243E8E7084B70B50D467B44FFF7CBFF0446284600F056F8002802D0F1
:201640000020C04370BD204670BD00001F57000001468008081A02091018020A1018020CCB
:201660001018C008820012185200891A01E0401C0A390A29FBD2704770B505464800440D99
:20168000124B0020002C0AD0634008D09A4206DA6642B24203DD12054019514170BD002CB9
:2016A00008D0002B09D0C90FC907002AF6DB084A114370BDC90FC90770BD28460A03104335
:2016C00002D00020034970BD284670BDFF0700000000F07F0000F87F0048704750010020A8
:2016E0000048704750010020C068802108407047F8B5264C4E00069DA6420AD8A64201D11E
:20170000002806D15E00A64203D8A6420AD1002A08D00D242404254233D02946002000F0A2
:2017200090F8F8BD0C461C4311D4994207D0C81A02D3EFF30080F8BDEFF30080F8BD801AA5
:2017400002D3EFF30080F8BDEFF30080F8BD09242407E5008B4207D0581A02D3EFF30080FC
:2017600006E0EFF3008007E0101A03D3EFF30080A04303E0EFF30080A043284380F3008867
:20178000F8BD009500F074F8F8BD00000000E0FF10B5FF231B0644009C421DD84C009C42C6
:2017A0001AD80346124A0B4307D4401A02D3EFF3008010BDEFF3008010BD081A03D3EFF302
:2017C0000080904305E0EFF3008001219043C907084380F3008810BD0D231B041A4204D018
:2017E0001146002000F02DF810BD00F04BF810BD000000907546FFF76FFFAE460500694639
:201800005346C008C000854618B020B5FEF7F6FC60BCB64600260027C0C5C0C5C0C5C0C5DF
:20182000C0C5C0C5C0C5C0C5403D490849008D46704710B50446C046C0462046FEF7B1FCD0
:2018400010BDC80212D54803400F002804D0C803C043012188407047EFF300800001000999
:2018600003210907084380F3008870470020704710B500200249029A00F00CF810BD0000D3
:201880000000F87F10B5024800F004F810BD00000000C07F10B50C461107090F092904D07D
:2018A0000A290AD008290CD104E011460820FFF7C8FF06E0510606D501E0510601D50120A6
:2018C000C007214610BDD10607D501010909CC084907000E0006044309E0410F200249071C
:2018E000000A0143200E00061D22D14101430846E7E70000F0B583B040F20050113007F023
:2019000051FF434807F04EFF40F2005007F04AFF0620029007F09EFD0920C00603210191F7
:201920000024E323224605F0F5FD204603F02EF83849204603F0B0F83749204603F086F8D6
:201940002046214603F0D0F8204640F2004103F097F8204640F2001103F0AEF8204642F2C8
:20196000000103F0B5F83221204603F0CDF8204603F09AF8204603F071F8204602F0FEFF53
:20198000204602F0EBFF01F02DFC012705253846294601F0FBFB072620462146324601F062
:2019A00085FC38463946324601F080FC022000902946324601F07AFC01980299324601F027
:2019C00075FC04203146324601F070FC3846394601F034FC7104384601F054FC204601F07D
:2019E000F5FB204601F0A8FC01F01EFC01F0BEFB40F20010394601F0BFFC01F00DFC009848
:201A0000394601F0B9FC384601F0A0FC03B0F0BD090600004C240140B001002010B54B1E77
:201A2000DBB2022B00D20C31C9B24C00A218022B00D2401E80B212188308D2186423B0FBFC
:201A4000F3F3D21A40F29013B0FBF3F0101803224A43D11C0522B1FBF2F14018072190FBC9
:201A6000F1F24A43801AC0B210BD000080B50C49FFF738FCFFF70CFC09F06AFEFEF774FEA3
:201A80000849FFF72FFC08490AF0D4F801467F20C005FFF727FC05490AF0CCF880BDC046AA
:201AA00000E0AB4600E076450FCF5B3B339388C3B0B55407D30804B15B1C53430478812CAF
:201AC0000BD3FF2C09D040780546403DEDB2BF2D03D27F2809D3402508E018062FD0DAB2CB
:201AE00008461146FEF7E2FDB0BD3F25ED432818C0B27F34E4B2BE2565432818DBB258437E
:201B0000182A0BD0102A1BD00C2A18D1154A547A957A2D022C19D57A127B18E0114A547EB3
:201B2000957E2D022C19D57E127F12025219120412191218084611461A4601F085FAB0BD6E
:201B4000084A547C957C2D022C19D57C127D12025219120412191218084611461A4601F01E
:201B600073FAB0BDC806002010B5104C607901281AD12079012813D801F054F82168401AC2
:201B80000B49884210D3E28821460831012008F0F5FE01F047F820602079401C207110BD2B
:201BA00002483921FEF784FD10BDC04610030020D107000070B50920C5060124002628465B
:201BC0002146324641F6001305F0A4FC03222846314641F6001305F0BEFC284641F20001A2
:201BE000224605F08BFC284640F60001224605F085FC284640F20011224605F07FFC70BDC8
:201C0000F0B581B005460920C4060026012000903746E8B2C209204640F2001105F06EFCEF
:201C2000204641F200013A4605F068FC204641F20001009A05F062FC701C6D00072E064630
:201C4000E7D30022204640F6000105F057FC0122204640F6000105F051FC01B0F0BDFEE77E
:201C600070B50446814E7388328800252846294600F04CFE2846294600F02AFE00F0CCFF85
:201C800030887188414308D0204600F07DFF3088718841436D1C8D42F6D370BDF0B587B006
:201CA0000D460746581A401C010434D0D11B491C0C9E80B20390069188B2019040000290B9
:201CC00000240595049707E002983618641C03988442059D049F1ED06448807B38B16019BF
:201CE00081B2069882B20123384600F00FFE601981B2384600F0ECFD00F08EFF069800041E
:201D0000E2D0019D3746388800F03EFF6D1EBF1C002DF8D1D8E707B0F0BDC046B0B50C46CD
:201D200005465248807B28B1012228462146134600F0ECFD2846214600F0CAFD00F06CFFD9
:201D40000248008800F020FFB0BDC0461E020020F0B581B014460D460646444FB87B28B181
:201D6000012230462946134600F0D0FDBF882A2000F0D8FEDC48874208D1701C80B200F07A
:201D800003FF2B2000F0CEFEAD1C05E0304600F0FBFE2B2000F0C6FEA8B200F0F5FE194D8B
:201DA0000027284640F600013A4605F0A7FB0126284640F20011324605F0A0FB284640F2C0
:201DC00000413A4605F09AFB68694FF6007101402C316961284640F200213A4605F08EFB0A
:201DE000284640F20021324605F088FB284640F60001324605F082FB204600F0C5FE01B0D9
:201E0000F0BDC04600040048F0B583B00293994201D903B0F0BD0D460646101A441C089F71
:201E200020040090019605E06D1CA8B202998842019EEED80D48807B28B1A9B2A2B20123C9
:201E4000304600F063FDA9B2304600F041FD00F0E3FE00980028E7D00026384600F094FE4F
:201E6000A0B2761CB1B28142F7D3DDE710070020F0B589B0974E01270025974C30463946AB
:201E80002A46234605F046FB032230462946234605F061FB642002F0FDFADB2000F0CAFC51
:201EA00000028E4CA080DC2000F0C4FCA573A1880143A18088B28A49884200D116E1894963
:201EC000884200D13BE28849884200D0DEE2112000F028FE962002F0DDFAB12000F022FE78
:201EE00005263046039600F0E9FD3C24204600F0E5FD204600F0E2FDB22000F013FE3046BC
:201F000000F0DCFD204600F0D9FD204600F0D6FDB32000F007FE304600F0D0FD204600F052
:201F2000CDFD204600F0CAFD304600F0C7FD204600F0C4FD204600F0C1FDB42000F0F2FDB2
:201F40000320069000F0BAFDC024204600F0EAFD2820049000F0B2FD082000F0AFFD04209D
:201F6000089000F0ABFDC12000F0DCFD204600F0A5FDC22000F0D6FD0D20059000F09EFD9D
:201F800000263046079600F099FDC32000F0CAFD8D24204600F092FD2A20029000F08EFDFB
:201FA000C42000F0BFFD204600F088FDEE2000F085FDC52000F0B6FD1A2000F07FFD3620B2
:201FC00000F0B0FD304600F079FD2627384600F0A9FD089E304600F071FD3A24204600F0F9
:201FE000A1FD039800F06AFDE02000F09BFD304600F064FD1F2000F061FD072000F05EFD03
:020000040800F2
:202000000A2000F05BFD2E26304600F057FD302000F054FD2520039000F050FD029800F010
:202020004DFD049800F04AFD384600F047FD304600F044FD204600F041FD079800F03EFDCC
:202040000120049000F03AFD069800F037FD1326304600F033FDE12000F064FD089800F031
:202060002DFD304600F02AFD062000F027FD059800F024FD2D24204600F020FD384600F08F
:202080001DFD232000F01AFD2727384600F016FD384600F013FD039800F010FD204600F0A1
:2020A0000DFD3B2000F00AFD079800F007FD049800F004FD089800F001FD304600F0FEFCB6
:2020C000292000F02FFD322002F0E4F96821034CA8E2C04600040048FF0F00001007002081
:2020E0000593000006910000F0890000A773FE2000F018FDEF2000F015FD362000F012FD95
:20210000482000F0DBFC3A2000F00CFD052000F0D5FCA42000F006FD4424204600F0CEFC18
:20212000204600F0CBFCA52000F0FCFC4224204600F0C4FC204600F0C1FCAA2000F0F2FC9E
:202140008824204600F0BAFC204600F0B7FCE820089000F0E7FC212000F0B0FC0B2000F053
:20216000ADFCE32000F0DEFC384600F0A7FC1820039000F0A3FCE124204600F0D3FC10261E
:20218000304600F09BFC0A2006950546049000F095FCAC2000F0C6FC0020019000F08EFC74
:2021A000AF2000F0BFFC6720059000F087FC204600F0B8FC304600F081FC2846069D00F028
:2021C0007DFCA62000F0AEFC29240794204600F075FC204600F072FCA72000F0A3FC272412
:2021E000204600F06BFC204600F068FCA82000F099FC1724204600F061FC204600F05EFC7D
:20220000A92000F08FFC2624204600F057FC204600F054FCF02000F085FC0226029630462A
:2022200000F04CFC304600F049FC019C204600F045FC304600F042FC072000F03FFC0F265C
:202240003046009600F03AFCF12000F06BFC384600F034FC0327384600F030FC204600F02C
:202260002DFC039800F02AFC322000F027FC1220039000F023FCF22000F054FC304600F093
:202280001DFC082000F01AFC2D2000F017FC042000F014FC062000F011FC3B20019000F084
:2022A0000DFCF32000F03EFC132000F007FC049800F004FC582000F001FC384600F0FEFB5A
:2022C000029E304600F0FAFB059800F0F7FBF42000F028FC0C24204600F0F0FB142000F0C7
:2022E000EDFB152000F0EAFB039800F0E7FB009F384600F0E3FBF52000F014FC304600F019
:20230000DDFB2046604C00F0D9FB0D2000F0D6FB372000F0D3FB019800F0D0FB384600F04A
:20232000CDFB112000F0FEFB782002F0B3F8079800F0F8FB2C2000F0F5FB089972E1A773CA
:20234000FE24204600F0EEFB204600F0EBFBEF2000F0E8FBB32000F0E5FB032000F0AEFB9F
:20236000B62000F0DFFB384600F0A8FBA32000F0D9FB1120089000F0A1FB2124204600F035
:20238000D1FB362000F0CEFBD02000F097FB3A2000F0C8FB052000F091FBB42000F0C2FBC1
:2023A000204600F08BFBF02000F0BCFB312000F085FB4C2000F082FB2426304600F07EFBC7
:2023C000582000F07BFBA82000F078FB262000F075FB282000F072FB0027384600F06EFBAB
:2023E0002C20079000F06AFB0C24204600F066FB204600F063FB1524204600F05FFB2046BB
:2024000000F05CFB0F24204600F058FBF12000F089FB0E2000F052FB2D2000F04FFB3046AC
:2024200000F04CFB3E2000F049FB992000F046FB122000F043FB1326304600F03FFB384632
:2024400000F03CFB0A2000F039FB0D27384600F035FB384600F032FB142000F02FFB3046D6
:2024600000F02CFB2046F24C00F028FB089800F059FB782002F00EF8292000F053FB0798F4
:2024800000F050FB6021CDE010070020112000F049FB782001F0FEFF362000F043FB002409
:2024A000204600F00BFB3A2000F03CFB552000F005FBB22000F036FB0C260796304600F0B2
:2024C000FDFA304600F0FAFA20462646049400F0F5FA3324204600F0F1FA204600F0EEFA8C
:2024E000B72000F01FFB352000F0E8FABB2000F019FB0E242046069400F0E0FAC02000F029
:2025000011FB2C20089000F0D9FAC22000F00AFB012000F0D3FAC32000F004FB12200590BA
:2025200000F0CCFAC42000F0FDFA202000F0C6FAC62000F0F7FA0F2000F0C0FAD027384615
:2025400000F0F0FAA42000F0B9FAA12000F0B6FAE02000F0E7FA384600F0B0FA304600F08A
:20256000ADFA0520039000F0A9FA204600F0A6FA1524204600F0A2FA0D26304600F09EFA17
:20258000372000F09BFA432000F098FA472000F095FA092000F092FA204600F08FFA059873
:2025A00000F08CFA1620059000F088FA1924204600F084FAE12000F0B5FA384600F07EFAD1
:2025C000049800F07BFA039800F078FA304600F075FA079800F072FA062000F06FFA2D2061
:2025E00000F06CFA442000F069FA402000F066FA069800F063FA1C2000F060FA182000F085
:202600005DFA059800F05AFA204600F057FA292000F088FA322001F03DFF089800F082FA95
:20262000A021D54C084600F049F980206080A0202080A5712846FFF713FB092000F072FA4B
:202640009B4F38689B4C204038600126384640F20041324604F052FF384640F200213246F3
:2026600004F04CFF384640F600012A4604F046FF384640F200112A4604F040FF384640F2A9
:202680000011324604F03AFF384640F200112A4604F034FF384640F20011324604F02EFFD2
:2026A000384640F200112A4604F028FF384640F20011324604F022FF3869384640F200111E
:2026C0002A4604F01BFF384640F20011324604F015FF3869384640F200112A4604F00EFF68
:2026E000384640F20011324604F008FF384640F60001324604F002FF386820406E49401875
:20270000386009B0F0BDC046F0B583B0CD4B1C880022844200D887E05C888C4200D883E00D
:202720009A7B22B10122134600F0F0F801E000F0CFF82E2000F0F6F9F94C20685D490840DD
:2027400020600125204640F200412A4604F0D6FE204640F200212A4604F0D0FE40F600079A
:202760000026204640F60001324604F0C7FE204640F20011324604F0C1FE204640F20011E8
:202780002A4604F0BBFE204640F20011324604F0B5FE204640F200112A4604F0AFFE206911
:2027A0000290204640F20011324604F0A7FE204640F200112A4604F0A1FE206901902046A1
:2027C00040F20011324604F099FE204640F200112A4604F093FE20690090204640F2001153
:2027E000324604F08BFE204640F200112A4604F085FE2069204640F600012A4604F07EFE4E
:2028000020682C4908402C4940182060029800024FF600010140203F0198C000384040187B
:2028200000990906C90E4218104603B0F0BDC04610070020F0B581B000F074F9F54C2068D0
:202840001C4F384020600125204640F200412A4604F054FE0026204640F60001324604F031
:202860004DFE204640F20011324604F047FE204640F200112A4604F041FE204640F20011BE
:20288000324604F03BFE204640F200112A4604F035FE2669204640F600012A4604F02EFE97
:2028A00020683840044940182060F0B201B0F0BD000400480000FFFF5555000010B50446F0
:2028C000362000F02FF9204600F0F8F810BD000070B50C4605465B4886882A2000F022F9AF
:2028E0002648864208D1681C80B200F04DF92B2000F018F9A41C05E0284600F045F92B2005
:2029000000F010F9A0B200F03FF970BDF0B583B0019317460E4605464A4884882A2000F0D7
:2029200001F90296019886197F191448844210D1681C80B200F028F9B8B200F025F92B20A8
:2029400000F0F0F80298801C80B200F01DF9701C0DE0284600F018F9781E80B200F014F984
:202960002B2000F0DFF8029800F00EF9701E80B200F00AF903B0F0BD10070020F0890000F1
:20298000F0B587B005905807DC0800B1641C5808604304064BD0203A0C9C0694C0B201908B
:2029A000D0B2029000200390264C0D460493102B06D00C2B3BD10C20029A50431E4A02E0FB
:2029C000029800011B4A1018039A80180778002678B2002801D4069A6AB90C460028174832
:2029E00000D417480288059880B2A9B2FFF7B0F92146049B134C62886D1CA8B2904216D265
:202A0000401A984205D07F00701C062E0646DFD907E02088059A521C059292B282420D46DC
:202A200005D2039A521C019803928242BFD307B0F0BDC0465CCB0008F0C100081E0200209E
:202A40000000002010070020F0B587B0069105460D98077839462039C9B25E292BD80699C1
:202A6000591852190C9B441C059358080390E8B2029096B288B20490A8B2B04200D3029DE8
:202A8000B042069801D305994018069081B20498814210D200200090A8B2FAB2059BFFF786
:202AA0006FFF03982D18601C277839462039C9B25F290446E0D307B0F0BD0000F0B581B09B
:202AC0000746544C0026204640F60001324604F015FD0125204640F200112A4604F00EFD8A
:202AE000204640F200412A4604F008FD60694FF600710140C8196061204640F20021324601
:202B000004F0FCFC204640F200212A4604F0F6FC204640F600012A4604F0F0FC01B0F0BD6F
:202B200000040048F0B581B007463A4C0026204640F60001324604F0E1FC0125204640F2D6
:202B400000112A4604F0DAFC204640F20041324604F0D4FC60694FF600710140C8196061B3
:202B6000204640F20021324604F0C8FC204640F200212A4604F0C2FC204640F600012A4684
:202B800004F0BCFC01B0F0BDF0B581B00646214C0125204640F200412A4604F0AFFC002767
:202BA000204640F600013A4604F0A8FC204640F200112A4604F0A2FC60694FF600710840EE
:202BC000310A40186061204640F200213A4604F095FC204640F200212A4604F08FFC606972
:202BE0004FF600710840F1B240186061204640F200213A4604F082FC204640F200212A4647
:202C000004F07CFC204640F600012A4604F076FC01B0F0BD0004004880B52C20FFF782FF33
:202C200080BD7047814800687047C04670470000B0B586B040F6000440F60000E43806F0DE
:202C4000B1FD06F01DFB40F6000006F021FD40F6000006F027FD40F2001006F0C3FD0F34E3
:202C6000204606F09FFD06F00DFF174C2068174DA84206D12D4C601C06F000FD98B12CA04D
:202C800016E001A8002181718180114A03920591104A0192049106F085FE78B10EA0FDF735
:202CA00037FC25600DE0204606F0E8FC10B12848FDF72EFC2748FDF72BFC02E011A0FDF7CF
:202CC00027FC002006B0B0BD50280040F03200007F00FF00190520060A0D2A2A205254437E
:202CE0002074696D6520636F6E66696775726174696F6E207375636365737321202A2A0DB2
:202D0000000000000A0D2A2A205254432074696D6520636F6E66696775726174696F6E20B8
:202D20006661696C656421202A2A0D001A090000706F776572206F6E207265736574206F6D
:202D4000636375727265642E2E2E2E0D000000002FD8000811D80008F0B581B0009000243C
:202D6000124D022726462846394607F079F828B9601CC72C0446F6D9374614E02846009929
:202D800007F062F8002701263C462846314607F067F820B9601CC72C0446F6D903E0284625
:202DA00007F042F80746F8B201B0F0BD003800407047000010B5401E010E01D0012010BD6D
:202DC000044C6060032000F0A3F90020A0600721216010BD10E000E080B501F061FB1349F0
:202DE0000868401C08600868114A42430120C241104B9A4200D980BD0F4A10700F4A10702C
:202E00000A680F4B53430222D3410E4A9342F2D80D4A107009680D4A4A430321CA410C4971
:202E20008A42E8D80B49087080BDC04648150020CDCCCCCC99999919530300205403002078
:202E4000295C8FC2285C8F0252030020D578E9263789410055030020B0B51B4801463039C5
:202E60000A6801252A430A600A689207FCD502462C3A1368154C1C4014601368144C1C4076
:202E800014600A68134B13400B60011F0A680F239A430A60016840F2031291430160290413
:202EA00002688A430260E90702688A4302604168A943416028380024046007F005F9E806EF
:202EC000214606F0DDF8B0BD301002400C00FF08FFFFC277FFFFF2FEF0B581B03E4C012117
:202EE000204607F0C9FA00284DD02C4FF87B401CF8730921CD06C0B2322807D310210026BE
:202F00002846324604F0FAFA7E733CE012280FD31238810F4118FC220A40801AC0B20328E8
:202F200021D030BB10210122284604F0E7FA2AE0102610280BD30027284631463A4604F048
:202F4000DDFA284631463A4604F0D8FA1BE00127284631463A4604F0D1FA284631463A46C3
:202F600004F0CCFA0FE010210022284604F0C6FA09E08810C0B2B97B8140C8B2C2091021D5
:202F8000284604F0BBFA01252046294607F00CFA2046294607F06CFA01B0F0BD1C14002042
:202FA000F0B585B00C46054640F2087006F0FAFB094E304607F0B6F901A900274F800C8066
:202FC0000F7303950297304607F0F2F91320394606F04CF805B0F0BD0020004080B503A060
:202FE000FDF796FA002007F051FA80BD444542554720555341525420696E746572727570FF
:20300000740D000080B5012007F040FA80BD000070B5374D0124002628462146324641F2F7
:20302000000304F077FA03222846314641F2000304F091FA284641F20001224604F05EFA13
:2030400006F096FE70BDC046F0B581B014460F460646274D0022284641F2000104F04EFA6E
:203060000320FFF779FE380CC0B2FFF775FE380AC0B2FFF771FEF8B2FFF76EFE44B1FF2761
:203080003846FFF769FE3070641E761C002CF7D10122284641F2000104F030FA01B0F0BD6C
:2030A00070B5134C0025204641F200012A4604F025FA9020FFF750FE2846FFF74DFE284639
:2030C000FFF74AFE2846FFF747FEFF252846FFF743FE06462846FFF73FFE0546012220467F
:2030E00041F2000104F00AFA3002401970BDC04600040048002807D41F21014001228A4029
:2031000040098000014942507047C04600E100E0FF210906034A13688B43800718181060A0
:203120007047C04620ED00E0002805D40322034693430C4A9A1806E00F220240083A0323D7
:203140009A43074BD2188007C00E8901C9B28140FF23834010689843084310607047C0468B
:203160001CED00E000E400E0704700008148016808220A43026001680907FCD40168042208
:203180000A43026001684907FCD4704702280ED0012818D10F2000050B4A136883431360E9
:2031A000090509180140106808431060704703200005054AD3688343D3600905091801409A
:2031C000D0680843D06070472C24014069490A6840F6000310B11A430A6070479A430A6011
:2031E0007047C04610B5044C204606F0EFFA204606F0E2FA10BDC046090300005D48016893
:2032000001229143016070475A48016840F20012914301607047C0465648016840F2001213
:203220000A4302607047C04652480168C90703D1016801220A4302607047C0460122034617
:20324000134021B14B4983B9800714D4704749491BB112050B6893430B608007F6D5086868
:2032600048F2000290430860704712050B6813430B608007EAD5086848F2000202430A6034
:203280007047C046012803D0022809D1064800E00448384A13680340136010680843106011
:2032A0007047C046FFFFF1FFFF8FFFFFB0B5214B05280AD8052444430846A0401F25A540F0
:2032C0009C6AAC4304439C621AE00B280BD8052444431E3C0846A0401F25A5405C6AAC438E
:2032E00004435C620CE00F280AD8052444433C3C0846A0401F25A5401C6AAC4304431C620B
:20330000092909D8032048438240072181405868884310435860B0BD122909D80320484374
:203320001E388240072181401868884310431860B0BDC0460C24014003210906254A136875
:203340008B4313601168014311607047C107094902D1800707D47047012292050B681343BE
:203360000B608007F7D5012040050A6802430A607047C0460824014040F2001203461340FE
:2033800091B1144913B10B6813430B60420504D540F200420B6813430B60800718D54868AA
:2033A000022202434A6070470A4923B10A6840F200139A430A60420504D50A6840F2004317
:2033C0009A430A60800703D548680222904348607047C0460424014010B5D44CA07840078E
:2033E00000D010BD606920B100216161102006F0EBFB0020E061207610BDC046F0B581B007
:20340000CA4FB878012421468143204605F024FAB989022005F076FA2148C178072005F013
:2034200071FA2426B95D481E81410825284605F0EDF9B85D41424141092005F00DFA7979F2
:20344000481E81410A2005F0E1F979780B2005F025FA14480178407800024118481E81410B
:203460000C2005F0D3F97969481E81411026304605F0CCF9B878400884431220214605F022
:20348000EBF9B957132005F03DFA054C6157652005F038FAA178662005F0DEF901B0F0BD5B
:2034A000601400205C14002080B50448007B41424141102004F06EFE80BDC0461C140020C4
:2034C000F0B587B08A4E32688A4842F2000104F09DFF3068C18840F2361540F236120A3AEB
:2034E00091420BD9C17801290CD10027C7708348808900284AD08048077003E011B97E48AF
:20350000002101703068417A002900D1E4E00021C17041727948828972B17B498181818845
:2035200002220A438280817A491E4A1E9141817276A0FCF77DFECFE071480288002A4FD0CA
:2035400005808278521CD3B20A2B00D811468170C9B2891E052900D9BBE08A0001A39A1800
:203560009746C04600F00AB800F06BB800F072B800F077B800F0ADB800F07CB8C17A827BB9
:203580000A4300D0A5E001218173A2E05C4C208860B3A0780A28B5D302ADAF71217A607979
:2035A000000108432870A17BE27A12010A436A70217D627C12010A43AA70A17EE27D1201EE
:2035C0000A432A712021615C637F1B010B436B714C4904910697D1B2112950D839464FE083
:2035E000524D6869D0B10120287675E022212046FDF75EF80920E07705212177607602219C
:20360000A175E0740321217460730121A172E07120712580112006F0E1FA73E72420285CD4
:20362000002859D108200124214606F0CDFA0920002106F0C9FAAC843D480188491C0180A0
:203640004AE0C17A4A424A410273012939D1022141733EE0417C027D0A433AD10121017524
:2036600037E0417C4A424A41827403292CD10121C1742EE0C17D022929D1032128E001212A
:2036800089050591C0B200F055F840F2D07140180190687800F04EF80090A87800F04AF803
:2036A000024601980099FEF7B9F9401CE870284606F078F92780132006F090FA40F2361589
:2036C00020E70921417304E00921C17401E009214176112006F082FA3068017909B1002170
:2036E0000171417809B10021417007B0F0BDC04608000020000800482C140020101500208C
:203700009C1400207F00FF00E02E00007769666920636F6E6E656374696F6E20746F67677D
:203720006C652E2E2E25750D0A0000006C1400204E1500200F21014000090A2242435018C7
:20374000C0B270470A21B0FBF1F25143401A11010143C8B270470178090442781202511855
:20376000827889180902C07808187047F0B59BB0169316460C460546209FB879FFF7DAFF43
:2037800002490978884203D1B9E2C0466E030020159070080F90291A1A913879FFF7CAFF73
:2037A00011907879FFF7C6FF0E90BE480078FDF79BFEBD49FDF796FD0546BC480078FDF7CB
:2037C00093FE0146284608F035FA06461A9880B20F9D4019FDF72DFC199018941A91062004
:2037E000C0430790001D16994843E91F13910818FDF71FFC04460D900D460C913046FDF7BC
:2038000047FDAB4AAB4BFDF71FFC074614900E4608F048F922462B46FDF716FC199A1A9BA5
:20382000FDF75CF9FDF7AEFB09900F991898401A80B24018FDF7FDFB054617900C461891F4
:2038400038463746314607F037FF0D9A0C9BFDF7FBFB02460B4628462146FDF74CF9FDF7F6
:2038600091FB0890169840081290001DC0B2FDF7E0FB04460D46149E3046394608F012F9E7
:2038800022462B46FDF7E0FB199A1A9BFDF726F9FDF778FB06903046394607F00DFF0B9471
:2038A00022460A952B46FDF7CFFB02460B4617981899FDF720F9FDF765FB0346002014906B
:2038C000022110910091019009980899069A03F0FBFE79480078FDF707FE7349FDF702FD53
:2038E000044670480078FDF7FFFD0146204608F0A1F90446169840001399081AFDF799FB91
:2039000005460F462046FDF7C3FCFE4AFE4BFDF79BFB044604900E4608F0C4F82A463B46FC
:20392000FDF792FB199A1A9BFDF7D8F8FDF72AFB06902046314607F0BFFE09952A460897ED
:203940003B46FDF781FB02460B4617981899FDF7D2F8FDF717FB05901298C01CC0B2FDF738
:2039600068FB04460D46049F3846314608F09AF8224613942B461295FDF766FB199A1A9B41
:20398000FDF7ACF8FDF7FEFA03903846314607F093FE22462B46FDF757FB02460B46179E26
:2039A00030461899FDF7A7F8FDF7ECFA0346109800901498019006980599039A03F084FE67
:2039C00007981699401A0F994018FDF732FB04460D46CE4F3878FDF734FBD24AD24BFDF764
:2039E00033FB08F05FF822462B46FDF72DFB199A1A9BFDF773F8FDF7C5FA16903878FDF791
:203A000020FBC84AC84BFDF71FFB07F055FE0F94224607952B46FDF717FB02460B463046E1
:203A20001899FDF768F8FDF7ADFA06903878FDF708FBBC4ABC4BFDF707FB08F033F8139CD4
:203A40002246129D2B46FDF7FFFA199A1A9BFDF745F8FDF797FA0746AC480078FDF7F1FA3B
:203A6000B04AB14BFDF7F0FA07F026FE22462B46FDF7EAFA02460B4630461899FDF73BF8BF
:203A8000FDF780FA0346109800901498019016980699119E3A4603F017FE35460B2E0ED9DB
:203AA0000CE0C0466D030020000070426C030020BF58F28B25BFE03F6E0300200C3D0E982C
:203AC000FDF712FD16909349FDF70CFC04461195A8B2FDF709FD0146204608F0ABF8FDF7E5
:203AE000D7FB8E4A8E4BFDF7AFFA07460C4607F0D9FF0D9E32460C9D2B46FDF7A5FA199AB5
:203B00001A9BFCF7EBFFFDF73DFA06903846214607F0D2FD32462B46FDF796FA02460B46A1
:203B200017981899FCF7E7FFFDF72CFA0D9038462146264607F0B6FF0B9C22460A9D2B4671
:203B4000FDF782FA199A1A9BFCF7C8FFFDF71AFA0C903846314607F0AFFD22462B46FDF7CA
:203B600073FA02460B4617981899FCF7C4FFFDF709FA03466D4910980090019106980D9925
:203B80000C9A03F0A1FD1598FDF7AEFC6149FDF7A9FB169908F04EF8FDF77AFB614A624BB3
:203BA000FDF752FA1691054607F07CFF099E3246089F3B46FDF748FA199A1A9BFCF78EFFFC
:203BC000FDF7E0F910902846169C214607F074FD32463B46FDF738FA02460B46179F38469D
:203BE0001899FCF788FFFDF7CDF90D9028462E46214607F057FF139D2A46129C2346FDF782
:203C000023FA199A1A9BFCF769FFFDF7BBF90C903046169907F050FD2A462346FDF714FA3C
:203C200002460B4638461899FCF765FFFDF7AAF90346012000903D48019010980D990C9ACA
:203C400003F042FD1598FDF7FCF9364A364BFDF7FBF907460E4607F025FF0F9D2A46079C38
:203C60002346FDF7F1F9199A1A9BFCF737FFFDF789F916903846314607F01EFD2A46234670
:203C8000FDF7E2F902460B4617981899FCF733FFFDF778F910903846314607F003FF139C95
:203CA0002246129D2B46FDF7CFF9199A1A9BFCF715FFFDF767F91A903846314607F0FCFC6F
:203CC00022462B46FDF7C0F902460B4617981899FCF711FFFDF756F903461498009013483F
:203CE0000190169810991A9A03F0EEFC08480E9901700948119901700448159901701BB041
:203D0000F0BDC046FF8D50466FCBBA3F6E0300206D030020000070426C030020BF58F28BA5
:203D200025BFE03FFF8D50466FCBBA3FBF0F0000B0B5020AF82313405C18FF22FE2C134666
:203D400000DC2346DC17A3431B04C408FC2525406D18FE2D144600DC2C46E517AC43A4B23B
:203D6000240223431D0A4FF600032B40C006000E4018FE2800DC0246D017824314436009FB
:203D800040F2E07101401006C00E0818C018B0BDB0B5054600240471E043E862284605F0FD
:203DA000DFF808B10320B0BD0F48281800880F49884216D16635A8780004697809020818F0
:203DC000297841180A48814209D0A97F09046A7F120251182A7F89180C1A601E8441204647
:203DE000B0BD0220B0BDC0462E02000055AA00004641540010B50D4C22680D4842F2000185
:203E000004F004FB2068C18879B10A4A002111706422C2800848094A82818172828802232E
:203E20001343838006A0FCF703FA10BD08000020000800482C14002010150020E02E00009B
:203E40007769666920636F6E6E656374696F6E2E2E2E25750D0A0000027812B1401C8A42C3
:203E6000FAD11046704710B50246436A5C68002064B1490A12689278B1FBF2F10C33A1422F
:203E800005D3091B1C680833002CF8D110BD181F0068401810BD891E4269921E914204D236
:203EA00082784A43806A10187047002070470000F0B583B0019002910878BF2101400D240D
:203EC0004C430D3C0126002505E01A4988422AD16D1C0D2D19D01648405D029A115C1018D9
:203EE00040780002401880B2002EEED002F078FC0027FE2C18D8064660000199085A02F051
:203F00006FFC864210D1641CE2E756B1029800784021014005D060000199085A08B1002778
:203F200002E0012700E00027384603B0F0BDC046CEC10008FFFF0000F0B583B00D46044682
:203F400041B12046294602F0A9FF02280AD2012003B0F0BD0195E76817B1606987420AD35D
:203F6000012708E0411C31D06169884201952F4601D203B0F0BD0225002002903E466069DB
:203F8000711C81420E4600D32E46814201D3022F0AD32046314602F081FF411CE9D030B14B
:203FA0000128E6D0BE42EAD1029803B0F0BD104A2046314605F0CEF9019921B118B92046D7
:203FC000324605F0C7F928B10128C0D10020C04303B0F0BDE6602069411C05D0401E2061BE
:203FE0006079012101436171304603B0F0BDC046FFFFFF0FF0B589B004910E6800E0761C6D
:020000040800F2
:2040000031785C29FBD02F29F9D03178012200272029134600D33B460290C56920290595FA
:20402000039240D2B0180499086003980340581E83410622002F7AD09B007800059940184A
:204040003946871E4E1C0024E54304E068003F18761E012E6DD038882E28F7D02028F5D0F9
:204060007C800298806920210B220192039304F0B3FD039B059801E0801C641C01882E296E
:20408000FAD02029F8D00320049004B10343002006906800012E4ED03918761E3A882E2A29
:2040A0000F46F7D148E00027012228463C4605E0801C621C079F7F1C2029B3D30890C8B260
:2040C0002F28AFD05C28ADD006230693FF2F00D1D2E07F31C9B27D29079701D914460DE006
:2040E000B256D1B20023DB439A4204DB0A46403A3E2A00D9C0E000024018A41C01210D46FF
:2041000002F0FEFA002800D1B6E007467F2806D85CA03946FFF7A0FE002800D0ACE0089821
:204120000780315D20292B46C2D30023C0E70692A2E00692A0E0069E08200699049A451EB3
:2041400007900891600005990818641C089902E01343641C801C0788202FF9D02E2F02D1C5
:20416000A642F5D101E0002F5FD0079881424AD2A64248D0802F0CD338461F4602F030FB46
:20418000002102F0BDFA0899049A3B46074602200343380A05D0A94211D31343079808906D
:2041A000D0E747B13AA039460393FFF755FE0899049A039B80B113435F27029808E0029911
:2041C00089690395089D48550298039D0899491C80694754491CB4E73846413880B21928E5
:2041E00005D802200699014306910899E5E73846613880B21928E0D80120069901430691FC
:204200000899203FD9E718461043079D0B2D029F35D0A64200D00346B44208D806988000B6
:20422000069008210198344689E7079D029FB8690178E529069C01D105210170082D00D13E
:20424000A4002240022018431646032A014600D019460C2214400C2C00D00846810707D4A1
:20426000012E01D110210843042C01D108210843B969C87200200690069809B0F0BD0346EC
:20428000D5E7C046222A3A3C3E3F7C7F000000002B2C3B3D5B5D0000F0B583B00446382021
:2042A0006449085C644AA618F7784979012905D1B84203D15F483921FCF7F8F91C2F00D979
:2042C000B0E0B80001A108188746C04600F038B800F042B800F044B800F046B800F063B852
:2042E00000F063B800F066B800F09CB800F080B800F098B800F096B800F094B800F092B845
:2043000000F090B800F078B800F08CB800F08AB800F088B800F086B800F084B800F082B82B
:2043200000F080B800F07EB800F07CB800F07AB800F078B800F076B800F074B800F062B885
:2043400003F03EFF404800680021C180418802220A43428003B0F0BD04F09CFF03B0F0BD90
:2043600002F0C2FF03B0F0BDB079364D287000240094032001462246234606F013FD28784D
:20438000042844D130480068818900294AD084812E48007880002E49085813210A2205F010
:2043A00043FC03B0F0BD264800E024480121017003B0F0BD307971790002401832D0B11DF4
:2043C0000291A11D019100250446019840191A4940188778C6780298401900F03BF8380251
:2043E00080192818001D85B22046A542ECD319E0FFF704F803B0F0BDB079F17906F0C2FCF2
:2044000003B0F0BDB01D04F0EBFA03B0F0BD287810B12878012805D129780B480068827ADE
:204420008A4201D103B0F0BD818802220A43828003B0F0BD1003002050150020391400207D
:20444000381400209F150020480100200F070020E8000020F0B581B00446C0780090A7786E
:2044600066782578284602F003FD4000084908184078864208D1380200994218211D28467E
:2044800000F06CFB01B0F0BD002001B0F0BDC046ECD700080649086008680028FCD1704745
:2044A0000348016811B10168491E01607047C04670030020F0B583B001910546002102919C
:2044C00000F0A1F920B1042800D1072003B0F0BD0127029C0AE0661C01998E42F3D0284630
:2044E000394600F079F800283446ECD12969286804F036FD0028E6D169690978E529EAD03A
:204500000029029EE7D0EAE7F0B585B004460021039100F078F9064610B1304605B0F0BD2B
:20452000FF20042101910546049002902169206804F016FD06460028EFD167693978E52958
:2045400008D0002941D0FA7A3F201040120709D50F2807D0049D0021204600F03DF80028AC
:20456000E4D034E00F2818D1E0690028F3D04A0606D57A7B0292E2882284BF2211400D46D6
:20458000EAB29142E6D1797B029A8A42E2D13946FFF78EFCB0B16D1EDDE7280605D13846B5
:2045A00005F0C0FC02998142B7D00A482084A169C87AC007CED1384604F082FA0028049D06
:2045C000C9D1AAE70398C543C5E7019EA5E70646A3E7C046FFFF0000F0B583B00446C088F2
:2045E000471C042538040BD0206948B10F223A4009D0E7805001216808183030606100256B
:20460000E8B203B0F0BD0E46401C2061E16869B102923A09206883785B1E1342029AE8D18F
:2046200002F03CFC022806D20225E9E7206800898742E5D2DDE70246401C12D0206841694A
:204640008A424AD3002176B10E46E168FFF774FC0246401C09D0314652B1012A0AD1022502
:2046600039E00125CCE7042535E00125314632E0072530E00192206805F0B0FC18B1012574
:20468000019A314627E0206830300026314640F2002204F0A1FA256828460199FFF7FBFB18
:2046A000E8622068817871B1002601250096057105F094FC68B92068C16A491CC162761C42
:2046C00081788E42F3D3C16A891BC1620121019A01E0019A0099002992D0E26020681146DB
:2046E000FFF7D9FB029A206183E7F0B587B005468769C66904AC0C222046394604F0EFF984
:20470000E17AC807039503D1880721D4012429E002910020F872E861012404A93846324623
:20472000234602F029FB0398FFF7EEFE054618B9641C642CF1D16424642C01D1072532E067
:20474000042D30D10299F972039DEE618807DDD51820B11C401C3288002A0E46F9D10D2160
:20476000B0FBF1F428462146FFF7A4FE0546E8B1CDB9039C2169206804F0F2FB054690B9AC
:2047800060690021202204F027FA6069A1690B2204F0A5F96069A169C97A18220A40027337
:2047A000206801210171284607B0F0BD641EDFD00398C188091B00F026F805460028D7D1A9
:2047C0000398806905F0AEFB0290012001900027039E3169306804F0C3FB90B97169F0694B
:2047E000E2B2029B02F09EF930680199017130463946FFF7F1FE05460028B9D1641EE8D149
:20480000B6E70546B4E7F0B583B0C18087680222012F3DD00E46054601684869874237D221
:204820001FB9087803281FD14F6A07B3286889780C01A642029204D23946FFF72CFB029A6A
:204840001AE001210191394602F028FB0746401C21D0022F21D32868406987421FD2361B13
:204860002868A642EFD2E7E70027002FDED10889B0420DD9486A0027EF6048B13109401810
:2048800029683207D20D89183031286169610022104603B0F0BD019AFAE7029AF8E7029AAF
:2048A000F6E780B5012803D1FEF7B2FB002080BD012080BD042398B1012813D103290FD8FC
:2048C000880001A31818874600F00DB800F004B800F00BB800F00CB808480088106009E0B6
:2048E0001846704701210846704740F2002000E008201080002108467047C0460200002044
:20490000F0B581B0ABB1012816D11C460D46570240F20026002000902846394640F20022FE
:20492000FEF792FBBF19AD19641EF5D1009801B0F0BD042001B0F0BD012001B0F0BD0020F8
:2049400070470BB10120704704207047142141436C480A5801239A430A5070471421414397
:2049600068480A58012313430B5070471421414364480A5820239A430A50704714214143E8
:2049800060480A58202313430B50704710B5142242432D49521853680124A3435360002366
:2049A00053609360D360136180000F22824008681043086010BDC046800081400248006846
:2049C0000840411E8841704700000240B0B50C460546FFF7BBFF142068434A494218236865
:2049E0009360A368D360238A5360425843F600739A4363681343E2681A4363691343435086
:204A000042584023257E012D01D09A4300E01A43425042588023657E012D01D09A4300E06F
:204A20001A43425042581023A47E14B11A434250B0BD9A434250B0BD8000814002480268A6
:204A40000A4302607047C0460400024014224243014811507047C046140002401421414373
:204A600028480A58802313430B5070471421414324480A5844F200039A430A507047C046A5
:204A800010B5142242431F48135840F60044A3430B43135010BDC04614224243014811507B
:204AA0007047C046100002401421414315480A5840239A430A50704710B514224243114845
:204AC000135840F20034A3430B43135010BDC04610B5142242430B48135843F20004A3433E
:204AE0000B43135010BDC04610B51422424305481358102411B12343135010BDA343135025
:204B000010BDC046080002401422424388B204495050704714214143014808587047C046C0
:204B20000C00024080B503F01DFF01460D2003F06DFE411E4842484180BD000080B503F03A
:204B400015FF4849C87048490A88022313430B80C1B2072005F038F880BDC046B0B514468E
:204B60000D46C11F09291CD8880001A21218974600F012B800F01BB800F017B800F015B8B1
:204B800000F013B800F011B800F016B800F00DB800F00BB800F016B828462146FFF7CEFF25
:204BA0001EE0652814D0662816D0C0B2B0BD2846214600F037F813E028462146FFF7B2FFD0
:204BC000C0B2B0BD2846214600F01EF8C0B2B0BD2846214600F036F82846214600F004F888
:204BE0000120C0B2B0BD000080B503F0BDFE01461C4881701C4802880223134303806620C4
:204C000003F02AFE80BDC04680B503F0ABFE8F48012101761020002103F0F8FD411E4842D3
:204C2000484180BD10B503F09DFE50B108200124214604F0C9FF0920002104F0C5FF83481D
:204C4000848410BD80B503F091FE0649087206490A88022313430B8041B2652004F0B4FFF9
:204C600080BDC0466014002044150020F0B591B02424764A155D764B0B9107290D940C95B5
:204C80000BD12521515C012900D0062105B991890AB2052A05DC754904E01093CDB1392163
:204CA00018E071490E91052A00DC714B054610930F926848007880006E4A12180F200A90FA
:204CC000002009906C4B1F2007906C4806906C4814E0117C054648B20F905E48007880008D
:204CE0005D4A121878200A90192009905B4B0D2007905B4806905B485B490E91614E3478FB
:204D0000641CE7B2092F00D900242F46347011680591196808910C99109E79B9E1B20529BD
:204D20000CD02006494C0F9D14D10020009048205F210E22122302F0A9FE0BE00021122275
:204D400000920191029148215F220E2303F04CFF3E4C0F9D4C482FB90088B1B2884201D10A
:204D6000EFBB38E0002532203F214F26109A97B2009601910290039704951D200D21812237
:204D8000652302F00BFC0C2400970194059802907321A0222846234603F04CF9202004F06E
:204DA0004FF9074639A10E9A069BFBF74FFA0094264C01950295079B5808311A0F9D4E2264
:204DC000384603F011FF3846109E04F031F92E48068001271FB92F480088A84215D003201B
:204DE00000970899019102900E980390049533202F2112221B2300F033F9B0B2ABB20999F3
:204E00000A9A00F037FB23480580606908B1401E6061E06908B1401EE0610D98205C28B998
:204E2000606988B1E06978B9207E68B9052D01DC052000E006200B99072900D00720012110
:204E400004F0DEFE3220E06111B0F0BD6C14002060F800000F070020880000200C0100207E
:204E600096C10008BAC1000862C1000874C1000880FCFFFF34000020000100209CC1000894
:204E8000A4C10008B0060020AC06002025732F2573000000AE060020F0B581B00027D94EA6
:204EA000132402250096F8B28000401C21462A462B4602F0A5FD781C272F0746F2D301B0EF
:204EC000F0BDC046F0B589B01446059158B15E48FF2101705D4801705D4801705D480170CF
:204EE0005D4800210170204602F09EFA594F397888420BD0002000902F2036211B230A46A9
:204F000002F0C4FD204602F08FFA38706420B4FBF0F14F4B1A78002591422A4605D019704F
:204F2000632C01D8002200E0012207924843211A0A20B1FBF0F2444B1B789A422E460BD080
:204F4000414B1A70092901D8002100E00121404A1678721E96410E43B4FBF0F14143601AAF
:204F60003A4A1178884201D0107001253878032808953D4605D0022807D1382004904A20BB
:204F800006E041200490532002E00020049041200690202004F054F80746079898B12878E1
:204FA000022810D32A4802782C493846FBF74EF900201B210091019002902F2136221223DF
:204FC000384603F011FE96B1287880B11E48027822493846FBF73AF900201B2100910190CD
:204FE0000290362212233846049903F0FDFD089880B11648027819493846FBF727F90020CF
:205000001B21009101900290362212233846069903F0EAFD384604F00BF80F4D2878A042C9
:205020000FD00598032806D1B42C04D10020014604F0E6FD04E0012802D1122004F0D6FD26
:205040002C7009B0F0BDC046F9000020FA000020F8000020FB000020B10600200CDB00081C
:20506000F0B58DB006AC0FC416981399129A1AB1FF228A704A700A70159A0592149A04921F
:205080000BAC0023A37063702370C41305196540AEB20A27B6FBF7F47C43341B6422B6FBB1
:2050A000F2F50A956A43B21AB2FBF7F602E05B1C032B1CD0DFB2012F06D047B9002809D448
:2050C0000CAA0A9D157008E00CAA567005E00CAAD45402E00CAA2D2717700CAAD75CCA5C45
:2050E0009742E4D00BAA0125D554CF54DFE703200499471AF8B2022831D80BA90C180CA9AB
:205100000D1800261CE017A1059AFBF79FF800200999009101900290F0B2089B5843069973
:20512000401881B20A98079A03F05EFD0A9803F07FFF641C6D1C761C7F1CF8B203280ED255
:2051400020780028F5D0202003F07AFF2B782D2B0A90D8D106A1059AFBF778F8D7E70DB0BD
:20516000F0BDC04625732F25752E626D7000000025732F7375622E626D700000F0B581B05A
:205180001D490A78521C0A70D2B20F2A05D300220A701A490A78521C0A7058B1A448807953
:2051A000FEF7C8FA282141433C20B1FBF0F01349087005E01248007810490978814219D072
:2051C0000F4E30780F4900918000401C1325022429462246234602F013FC084F3878A44972
:2051E00000918000401C29462246234602F008FC3878307001B0F0BDB2060020B4060020AC
:20520000B306002047190000F0B585B02E4D2F4E70B929786A78120251183288914207D1F5
:205220002B49497804220A402A4909788A4248D027494A78042111401ED12648002101705A
:2052400000911420032136220C2302F01FFC202003F0F6FE044620480078800021490B5833
:205260002878697809020A181FA12046FAF7EEFF204603F0DDFE1FE0164A08B91078D8B90F
:2052800011700020009014240321049136260C27204632463B4602F0F9FB0F4800788000C9
:2052A0000E4908580E490097019702912146049A3346064E02F02AFE287869780902081886
:2052C000308005B0F0BDC0465C140020B60600206C140020B80600200F0700202C0000204A
:2052E00080FC0000240000202530347525730000F0B589B005464D4804684D480079FEF72B
:2053000019FA04904B480390022007900290019400951026242112241B27304608962246DC
:205320003B46FFF79DFE44480068069040484079FEF700FA009506990191079902913D4922
:20534000039104904721304622463B46FFF788FE0C263A48805F3A490968049039480390B3
:2053600003200790029001910095502737211124384632462346FFF773FE08982F4908567A
:205380003149096800950191079902912D490391049038463946089632462346244EFFF746
:2053A0005FFE4DB9707829490978814204D1B07827490978814236D0707824490870B07840
:2053C00023490870002000903E200790242106915A273A46089C234602F058FB202003F0E2
:2053E0002FFE05461B4800781C2141431A484018F17889000818001F006832787378B17888
:205400000091019015A12846FAF720FF184800940194029028460799069A3B4602F076FD87
:20542000284603F005FE09B0F0BDC046040100205803002050C10008FC0000206C14002027
:205440000001002086C100080C010020BA060020B90600200F070020A8000020323025303B
:2054600032582E253032582E2530325820257300BF0F0000F0B591B00293049203910690C7
:20548000002525217F20C0430590284603E0109A501C2E2A71D20F911090C8B2FBF7D1FDEE
:2054A000774A784BFBF7D0FD06460C4606F0FAFA07460B913046214606F0FEF8089007913F
:2054C0003046214606F0EEFA0A9009913046214606F0F2F80D900C9106980599FEF728FC91
:2054E0000E9038460B992A46674C2346FBF7ACFD2A46664F3B46FBF7F1FAFBF743FD0B9075
:20550000089807992A462346FBF79EFD02460B4628465F49FBF7EFFAFBF734FD08900A98FE
:2055200009992A465B4E3346FBF78EFD2A463B46FBF7D4FAFBF726FD04460D980C992A46F0
:205540003346FBF781FD02460B4628465049FBF7D2FAFBF717FD0346012700970E980190BF
:205560000B980899224602F0AFF80F98401CC1B23B2929468BD8014689E70C97039D0298A6
:20558000401BFBF7A9FF444906F0EEFB04460498401BFBF7A1FF01462046FBF7A3FE3F2137
:2055A000090606F047FBFBF74DFF2F2800D32F20002862D00024252226460B9004E0761CAB
:2055C000B0B20B99884258D21092D0B2FBF739FD2B4A2C4BFBF738FD07460D4606F062FA80
:2055E0002246294BFBF730FD2246284BFBF776FAFBF7C8FC0F903846294606F05DF822467E
:20560000214BFBF721FD02460B4620462049FBF772FAFBF7B7FC0E903846294606F042FAE6
:2056200022461C4BFBF710FD2246184BFBF756FAFBF7A8FC0D903846294606F03DF82246DC
:20564000144BFBF701FD02460B4620461049FBF752FAFBF797FC03460C9800900698019034
:205660000F980E990D9A02F02FF81098401CC1B23B292246A3D80246A1E711B0F0BDC0461A
:20568000FF8D50466FCBBA3F0080464000C0534000804F400080454000003C42F0B593B0E2
:2056A00030B905465D4800785D498978814266D000200F90009020253C2160220C231093B4
:2056C00028461291119202F0E1F9284603F0B8FC0B90534C605D0C9060790E90207A0D90F4
:2056E000E17AA07B0990627C237DE67DA77E607F0A900091099801A94DC10B9E05970F9F3F
:205700000A9806900C98079046A130460E9A0D9BFAF79CFD109BA0780193029609283E4839
:2057200000D8F84380B2009028461299119A02F081FC304603F07CFC41480770A0783749E8
:20574000087001250A2800D0C8B900974E21A0220C263846334602F099F9A0780A280ED18A
:2057600038480078800038490858029001963748009000204E21A022334602F05BFC304A0B
:205780001078411C117025B9C8B20F2801D213B0F0BD234B987809283AD8C9B20F290CD37E
:2057A0000321414359184A79521C4A710B79D2B29A4202D94A1DC9781170002112910091A7
:2057C00041080D18062465432C353C2111910C2628462246334602F059F9202003F030FC05
:2057E00007460F4A907803214143501840791299797030303870084800A9C1C12846119903
:205800002246334602F016FC384603F011FC0C4A0020107013B0F0BDF2070000BB060020E5
:205820009C1400203230257525752E257525752E2575257520257525753A2575257500007C
:20584000BC0600200F0700200C0000203084000070B584B0114D124E28B9287E3178814246
:2058600001D104B070BD0F48008800907D20012110220E24234602F009F9287E48B10020C7
:2058800000940190029008A07D210122102303F0ABF9287E307004B070BDC0466C14002051
:2058A0000801002050030020313A2F53595354454D2F49434F2F73696C656E63652E626DB4
:2058C00070000000F0B589B02D23F54F2426B85DB96A089331BBF95C21BB88B32520385C98
:2058E00006240025062800D97FE0810001A251188F46C04600F00CB800F077B800F037B8D9
:2059000000F03BB800F03FB800F04BB800F052B8EA4800788000EA4908580121052204F0D6
:2059200083F93BE0002548B12520385C042805D1386A18B10A20F8542C4656E02C4654E0A8
:20594000E048818939B1807ADF490A7890420AD10124002549E0DD480188D9B3491E018045
:205960000224002541E0087001252C463DE04020012102F00FFC072437E04020012102F059
:2059800009FC082431E0CD4800788000D049085813210A2204F048F99620386200252C46C3
:2059A00023E0CC48002505804020294602F0F2FB04241AE0C14800788000C74908581321B1
:2059C0001E2204F031F940200025294602F0E2FB2C460AE07879002508B1032405E0B8783F
:2059E0000524204200D1D2E1072425B9F1480078844200D12FE10796EF4800260680304641
:205A0000FCF72EF90125082C00D923E1A00001A10818874600F019B800F064B800F090B801
:205A200000F0A8B800F0C0B800F001B900F004B800F002B800F000B81D200090019602960A
:205A4000D7486322A023314602E118200690009001960296D34844212522069B03F0C4F8E1
:205A6000B86A02900C20059001909C4800904321A0223046069B04F0F5F8CC480078800082
:205A800097490858B96A814226D1202003F0D8FA0646F84801794279120251188279C07972
:205AA000000280180004401840F2F411401840F2E831B0FBF1F2F0493046FAF7C7FBE848F6
:205AC0000090059B0193029600205B21A02202F0B1FA304603F0ACFA2C20385C002104F06B
:205AE0008FF8B7E08020009001960296DE48A0233146324603F078F8AC4800788000DB49DE
:205B0000085802900C260196D548009030206C213C22334602F08EFAA4480078C000D449AE
:205B20000818A349897A89004058CD490091019602902D205E214522334602F07BFA89E0E9
:205B400013200090019602969C486D22A023314603F04AF8954800788000C249085802909F
:205B60000C230193BE48009020203021602202F061FA6FE08020009001960296B648A023FD
:205B80003146324603F030F8884800788000B349085802900C230193B148009030206C211C
:205BA0003C2202F047FA55E00C2006900090019602968948022110230A4603F015F8FFF731
:205BC0006BF9142000900196029684A06C22A023314603F009F81220049000900196029609
:205BE00085A03E21039150220E230593059B02F0FBFF049800900196029684A03722039952
:205C0000059B02F0F1FF069800900196029685A0782105913C221F2302F0E6FF06980090AC
:205C20000196029686A055220D23059910E0132000900196029661486D22A023314602F084
:205C4000D3FF63230093019602965DA01E210E2202F0CAFF079E284600F014F92846FFF78F
:205C6000F7FDB85D18B15348007884426FD0601E07286CD8810001A251188F4600F012B82D
:205C800000F017B800F02EB800F032B800F04DB800F004B800F002B800F055B8072153E0F2
:205CA0006C140020424880896421B0FBF1F0C2B219E02846FFF7F2FC49E0C0460F0700207C
:205CC0008000002010150020110100209C140020900000204E15002078000020BF0F000044
:205CE000440000207A7928462146FFF7EBF82EE02846FFF789FA2846FFF740FA2846FFF7A8
:205D0000F7FAB85D18B3787802254007284600D50320002103F074FF7878400700D4012536
:205D20000920294603F050FF11E010203956284603F0E4FF514800904F203F2164220623EE
:205D4000FDF714FD03E008212846FEF78FFF19480470089A0CB90020B8624948007B18B9EE
:205D6000B95C09B1491EB954B95C01430DD1B85D58B12520395C491C3954C8B2072804D33F
:205D80000021B955082003F01FFF09B0F0BD800700D5F6E504480088C00700D108E624E69A
:205DA0008EDA0008DEDA00084E1500200F07002010150020100100205003002076DA0008B9
:205DC000313A2F53595354454D2F49434F2F70616E656C2E626D7000F5DA0008313A2F53CA
:205DE000595354454D2F49434F2F626F74746F6D2E626D7000000000313A2F5359535445A4
:205E00004D2F49434F2F742E626D7000313A2F53595354454D2F49434F2F6761732E626D2B
:205E200070000000313A2F53595354454D2F49434F2F612F302F6C656C2E626D70000000A1
:205E4000313A2F53595354454D2F49434F2F612F302F632E626D7000C2DA0008A000002067
:205E6000BF0F000098000020A6DA0008F0000020140000206014002025DB000858030020B9
:205E80001C140020F0B583B0054625494888800713D5888920B1897A012907D1642106E090
:205EA00002F074FD042834D1022407E01421B0FBF1F0C00701D0002400E00324194F25B977
:205EC0003878A04201D103B0F0BD1748008800908E20022110220C252B4601F0D7FD032CEE
:205EE00014D0202003F0ACF8064610A12246FAF7ADF900200095019002908E21022210230D
:205F0000304602F071FE304603F092F83C7003B0F0BD02F03BFDC01E44424441CEE7C046DD
:205F2000101500201201002050030020313A2F53595354454D2F49434F2F77696669257575
:205F40002E626D7000000000B0B582B014460D4600210091694601AA00F02AF808B102B007
:205F6000B0BD01998A784969891E514349082960009951434908216002B0B0BD80B540F2CC
:205F8000302003F05DF8024948604142484180BDC006002010B5044600F064FB00B110BD6B
:205FA000204604F0A1FD0028F9D10021216010BDF0B587B014460F46069006A9002510463D
:205FC0002A4600F021FC00286DD102900097276838697C69A11E884219D93878012818D163
:205FE00000250224012604E06D1C641C786984424CD23846214600F051FF0028F4D0411C0F
:020000040800F2
:2060000046D00128F1D105950220029042E0024646E0039038463030019029463D6A032066
:20602000C04304900846059104E03746C0188918641E2FD048B93846294602F091FF029088
:2060400040BB6D1C40F2002001993E46039A022A09D10A784B781B029F18049A931C02221F
:20606000002FE2D10EE08A781204CB781B071B099A184B781B02D2180B78D7180422049BFC
:20608000002FD2D1059F7F1C0597CEE7059501E005950296059A3A61787901210143797176
:2060A000009802600298C0B207B0F0BDF0B585B00E46054604F018FD044608B12746C9E0DB
:2060C000EF79002F00D0C5E06A6A002A43D0701C60D0EF68B74200D33746AF600121002FE7
:2060E00000D189E004917E1E28463146FDF7BBFE0146686128680390FDF7CDFE002879D040
:20610000F90526D0710A039B9A78521E0A401618AA6996421DD0A87940060DD55878294618
:20612000283101273B46FEF70CFC002800D08DE0A879BF210140A97128684078294628318F
:20614000012732463B46FEF7DBFB002800D07DE0AE6104997CE0EF68B74202D2A87980072A
:2061600000D53746A9680026AE60002F00D19AE0049628688278560239B1491EB1FBF6F2AD
:206180007B1EB3FBF6F3934237D22969002964D0696137E0286908CA022620B30027019308
:2061A00000970392B61C0496029006462868314600F074FE01281DD9411C46D07F1C711C46
:2061C00088420646F2D0019B049E9E4201D9039A04E0039A1760029951600832009F2968A4
:2061E00049698842DDD3686A066001219E423FD911242DE0022729E02AE070420140A960A7
:206200007F1A6969F9B1B74241D9002003902868AA79920703D400F041FE014603E0FDF733
:206220008BFE014688B3481C2DD0022969D328684069814265D26961A8688019A860BF1B03
:20624000B742E4D823E0049E2DE00127EF71002101B12746F8B205B0F0BD00210391FDF75A
:206260006BFE0146401C06D001290AD1022703E000201060ECE70127EF71039A002AE9D0C0
:20628000E7E7296184E701273CE003993746A868C019A860F805049E05D02868FDF7FBFDFD
:2062A00078B3790A46182889C0051DD0AA6996421AD0A87940060CD5286840782946283142
:2062C00001273B46FEF73DFBE0B9A879BF210140A9712868407829462831012732463B46C2
:2062E000FEF70EFB70B9AE61A868E9680122884204D9E860A87920210143A971002AA9D092
:20630000A7E70227EF710022002AA3D0A1E70000B0B584B01446054602910390019101A880
:2063200000F0C6FF002816D480000C490A580AB10023137008180DB1002129700399016069
:206340000020012C05D121B103A802A9002200F05BFA04B0B0BD0B2004B0B0BD14020020E8
:20636000F0B593B0129198B316460446002505601E22324009A812A900F046FA074640BB81
:2063800040F2002000F024FA30B305951F2506A90F9103901090129909A800F073FC074652
:2063A0000E9804900028384600D106202E4007B90746F006400F11D0EFB1042F03D109A80D
:2063C000FEF793F90746082006430E9804901CE00927384613B0F0BD1127FAE7002F4AD1C7
:2063E0000498C07AC10675D4C007384600D00720B1073FD43FE00498C07A1121084201D06E
:20640000072702E0700700D50827A7BB0820304031D000F0B9FD049D0599E9770599A977F3
:206420000599697705992977A8730599E972010E6974010C2974000AE873099802902946EF
:2064400002F022F801902846059903F063FD012002990871019870B105460298C16A0091B0
:20646000294603F02BFA28B9691E0298C160009902F076FD074647B9049820620998C06A3E
:20648000E061B000202101408E19039800F0A4F9002F9ED10599E171A671099802900E468E
:2064A000049D294601F0F0FF2061287F0390697FAA7FEB7FA660A661029D2560ED88A580EB
:2064C00066621B061204D2180902511803980818E0607EE70427002FD7D1CDE7F0B585B06F
:2064E0001E46154604910446002003901860204604F0FAFA0746002800D0AEE0E779002F23
:2065000000D0AAE0A079C00701D10727A5E00296A068E1680E1AAE4200D32E46002E049FA3
:2065200000D187E02046283001904D4A11E02118283138462A4602F0D2FAA0684019A060AD
:206540000299086840190860761B7F19002E444A72D0A168114208D0A0681040111A491C2C
:20656000B1423546E3D80D46E1E704974A0A20688778FF3717403A0610D129B1626A2AB132
:206580002046FDF770FC04E0206902E0616900F085FC012858D9411C59D0606161692568B3
:2065A0002846FDF778FC002848D0F9B24318770A1ED0CA19A878824200D9471A68780499D2
:2065C0001D461A463B46FEF79BF9D0BBA07940060BD5A069401BB84207D2400204990818EE
:2065E0001F494A1C019902F07AFA7D02049FA4E7A2699A421AD0A07940060CD5009368789C
:20660000012701993B46FEF79CF928BBA079BF210140A171009B20684078012701991A4681
:206620001D463B46FEF76CF92B4698B9A361049F0B4A91E7039F10E0039F0EE00227E77143
:206640000BE00127E77108E00227E77105E00127E77102E0E77100E0E771384605B0F0BDAF
:20666000FF010000B0B5044604F03EFA054608B12846B0BDA0798106FAD540060ED5A269BD
:20668000206840782146283101252B46FEF759F90028EDD1A079BF210140A171E169206818
:2066A00002F05EFC05460028E2D1256AE87A20210143E972E0682877E068000A6877E08916
:2066C000A877E07BE8772169284603F023FC00F05BFCA8750021E974A974010E6976010CDD
:2066E0002976000AE875206801210171A179DF220A40A27103F024FC05462846B0BD0000C7
:20670000F0B587B0802802465DD3304D6A79AB791B029B18EC792A7A120212191204D218E1
:20672000044601B15108D008401E05904508A80003914018254B59789A7812025118DA7836
:206740001B791B029A1812045118411806AE04223046FCF779FC308800222146A042019290
:2067600014462CD0102700220492029180B2884200D30595884200D3049D7F1EB8B244420D
:206780004441E0B1114A5078917809020818D178127912025118090408180599491B4908BB
:2067A00004954D19A900039A8918091806AE04223046FCF749FC308802998842D6D106A8D8
:2067C000019A04B9428890B207B0F0BDC806002080B502F035FC80BD80B502F029FC80BDE5
:2067E00010B50749074AEF231488844205D05B1E921C891C002BF7D110BD088810BDC046FB
:20680000D0DB0008B0DD0008F0B58DB01546044600260660084600F04BFD002814D407463A
:206820008000B7490958F9B12160087870B148780C46FEF784F8C107214607D1BDB140076C
:20684000C0170A25054012E00B2510E04F7008910E70F8B2FEF725F8C10707D155B104217E
:20686000084007D00A2502E00C2500E0032528460DB0F0BD08983146FDF78AFA012829D125
:2068800040F2F2100899081800210A4605E009ACA3501030121D102A0ED00378002B0B4687
:2068A000F5D0C3791B0684792404E318447924021B1904791B19EAE70024022509A80659A2
:2068C00028461EB108983146FDF762FA10B1241D102CF3D118B1032877D10125C7E7089F5B
:2068E0003C463034E07A217B0902081885494A1C0D259042BBD138465030A27DE37D1B0233
:206900009A18394609D1C279120683791B049A1843791B02D2180379D2188A61237CCB705E
